:04080000E2EF1FF014
:10398A001200010E6CEC1DF01200F37F9F7FB47FD2
:10399A00487F7F7F867F016E9EA8D6EF1CF0D8EF06
:1039AA001CF0D1EF1CF001C0ADFF1200949C948E64
:1039BA004D0EAF6E000EB06EAC84AC98AB8EAC8A76
:1039CA00AB88AC9CAB9C1200ABA2EEEF1CF0F0EF04
:1039DA001CF0F2EF1CF0AB98AB889EAAF7EF1CF034
:1039EA00F9EF1CF0F2EF1CF0AE5012000150030286
:1039FA00F3CF05F0F4CF06F001500402F350062687
:103A0A0002500302F350062605C001F006C002F078
:103A1A001200266E290E026E7F0E036E52EC1FF004
:103A2A002650300FD0EC1CF0A70E026E7F0E036EEC
:103A3A0052EC1FF03CEC25F01200AA0E026E7F0E2B
:103A4A00036E52EC1FF03CEC25F0E806D8B430EFD8
:103A5A001DF033EF1DF0010E34EF1DF0000E266E3F
:103A6A00276A1200000E026E0F0E016E7EEC1EF027
:103A7A00000E936E959C959E020E6CEC1DF0280E1E
:103A8A006CEC1DF0010E6CEC1DF00C0E6CEC1DF0D4
:103A9A00060E6CEC1DF0120001C003F002C004F027
:103AAA0059EF1DF0014A022A01C0D9FF02C0DAFF0C
:103ABA00DF50D8A463EF1DF065EF1DF057EF1DF03E
:103ACA000350015C016E04500258026E1200076E28
:103ADA0007C08AFF8C9C8C8E00F08C9E000E026EB2
:103AEA00030E016E7EEC1EF00738F00BF00B8A6EA7
:103AFA008C9C8C8E00F08C9E000E026E030E016E62
:103B0A007EEC1EF01200076E07C08AFF8C8C8C8E2A
:103B1A0000F08C9E000E026E010E016E7EEC1EF00D
:103B2A000738F00BF00B8A6E8C8C8C8E00F08C9E12
:103B3A00000E026E010E016E7EEC1EF01200D00E17
:103B4A00036EFF0E046E01C005F002C006F00350BA
:103B5A0005260450062206500AE10A0E055CD8A082
:103B6A00B9EF1DF0BCEF1DF0010EBDEF1DF0000E08
:103B7A00016E026A12000150021003100410D8B438
:103B8A00C9EF1DF0CBEF1DF0D3EF1DF0000E011AA7
:103B9A00000E021A000E031A800E041A01C001F068
:103BAA0002C002F003C003F004C004F01200BF0E0A
:103BBA00036EFF0E046E01C005F002C006F003504A
:103BCA0005260450062206500AE11A0E055CD8A002
:103BDA00F1EF1DF0F4EF1DF0010EF5EF1DF0000EF0
:103BEA00016E026A12000D6E020E0D60FFEF1DF0EB
:103BFA0001EF1EF00AEF1EF00A500F0B80090E6E3D
:103C0A000E506CEC1DF011EF1EF00A500F0BC0099C
:103C1A000E6E0E506CEC1DF00BC008F00CC009F0D3
:103C2A0023EC1FF01200130E026E7F0E036E52EC8D
:103C3A001FF026C002F027C003F052EC1FF0D60E88
:103C4A00026E7F0E036E52EC1FF028C002F029C0EC
:103C5A0003F052EC1FF0CE0E026E7F0E036E52EC92
:103C6A001FF03CEC25F01200000E106E000E0F6ED5
:103C7A004AEF1EF00EC001F0026A0CC003F00DC03C
:103C8A0004F008EC22F00F4A102A0F500A24D96EC9
:103C9A0010500B20DA6EDF500E6E0E50D8A458EF7B
:103CAA001EF05AEF1EF03FEF1EF01200000E2C1A03
:103CBA00000E2D1A000E2E1A800E2F1A28C001F09F
:103CCA0029C002F02AC003F02BC004F02CC005F072
:103CDA002DC006F02EC007F02FC008F064EC2DF0BE
:103CEA0001C028F002C029F003C02AF004C02BF05A
:103CFA001200000E046E000E036E97EF1EF0000E07
:103D0A00066E000E056E054A062A2F0E055C010E88
:103D1A000658D8A093EF1EF095EF1EF088EF1EF01C
:103D2A00034A042A0150035C02500458D8A0A0EFA9
:103D3A001EF0A2EF1EF084EF1EF01200010E076EB5
:103D4A00200E01180210D8B4ADEF1EF0AFEF1EF02E
:103D5A00C8EF1EF0F70E036EFF0E046E01C005F0E9
:103D6A0002C006F00350052604500622065009E157
:103D7A00050E055CD8A0C4EF1EF0C6EF1EF0C8EF12
:103D8A001EF0000E076E07C001F0026A1200A20EB2
:103D9A000001AE6F000EAF6F9EC0B0F09FC0B1F0D1
:103DAA00000EB36F000EB26F000EB56F000EB46F47
:103DBA00B00E986F000E996FA0C09AF0A1C09BF048
:103DCA00AE0E9C6F000E9D6FB1EC1FF00001B25158
:103DDA009E25D96EB3519F21DA6E000EDF6E120056
:103DEA0003C007F004C008F001C009F002C00AF0DD
:103DFA000750056E0850066E074A082A05C0F6FFE6
:103E0A0006C0F7FFF86A09C0D9FF0AC0DAFF094AF3
:103E1A000A2A070EF76403D00800F55005D0F6CF3A
:103E2A00E1FFF7CFE2FFE750DF6EDF50D8A420EFC3
:103E3A001FF022EF1FF0FDEF1EF0120039EF1FF006
:103E4A0008C0F6FF09C0F7FFF86A070EF76403D047
:103E5A000800F55005D0F6CFE1FFF7CFE2FFE750B3
:103E6A0088EC1DF0084A092A08C0F6FF09C0F7FFC6
:103E7A00F86A070EF76403D00800F55005D0F6CFAC
:103E8A00E1FFF7CFE2FFE7500009D8A44FEF1FF098
:103E9A0051EF1FF025EF1FF0120068EF1FF002C06C
:103EAA00F6FF03C0F7FFF86A070EF76403D00800AD
:103EBA00F55005D0F6CFE1FFF7CFE2FFE750D0EC9F
:103ECA001CF0024A032A02C0F6FF03C0F7FFF86A91
:103EDA00070EF76403D00800F55005D0F6CFE1FFCE
:103EEA00F7CFE2FFE7500009D8A47EEF1FF080EF7A
:103EFA001FF054EF1FF01200BF0E096EFF0E0A6E7C
:103F0A0007C00BF008C00CF009500B260A500C220F
:103F1A000C500AE11A0E0B5CD8A096EF1FF099EF2D
:103F2A001FF0010E9AEF1FF0000E0D6E0E6A0D5073
:103F3A000E10D8B4A3EF1FF0A5EF1FF0ACEF1FF0DF
:103F4A00200E0710076E0850086EB0EF1FF007C06A
:103F5A0007F008C008F012009AC05EF09BC05FF03C
:103F6A00000E0001D86F000ED76FCFEF1FF098C078
:103F7A0040F099C041F05E0E426E000E436E9CC046
:103F8A0044F09DC045F0C4EC2FF040500001D72703
:103F9A004150D8235EC0F6FF5FC0F7FF0800F55016
:103FAA000009D8A4DBEF1FF0DDEF1FF0BCEF1FF014
:103FBA00D7C098F0D8C099F01200940EF66E390E58
:103FCA00F76E000EF86E01EEE2F010EE0CF009004A
:103FDA00F5CFEEFFE550E150FAE102EE64F011EEA2
:103FEA00F4F0EE6AE550E150FCE1E250FAE102EE4B
:103FFA0000F0640EEE6AE806FDE101EE00F0E20E62
:10400A00EE6AE806FDE100EEB8F0430EEE6AE80655
:10401A00FDE1000EF86E000147EF32F0000E086E67
:10402A00000E066E000E056EE9EC1CF0076E054ADE
:10403A00062A08500124036E000E0220046E03C0F3
:10404A00F6FF04C0F7FF0800F5500718D8A430EFB0
:10405A0020F032EF20F035EF20F0082A37EF20F079
:10406A00000E086E08500124036E000E0220046E32
:10407A0003C0F6FF04C0F7FF0800F5500009D8A4F2
:10408A0049EF20F04BEF20F019EF20F005C001F0C6
:10409A0006C002F01200000E046E83A257EF20F051
:1040AA0059EF20F052EF20F01E0EE82EFED783B211
:1040BA0061EF20F063EF20F075EF20F0045007085D
:1040CA00016E010E026E012A6DEF20F0D8900236C1
:1040DA00012E6BEF20F00250FF0A03168BEF20F03F
:1040EA0004500708016E010E026E012A7FEF20F0CC
:1040FA00D8900236012E7DEF20F00250031283B2CF
:10410A0089EF20F08BEF20F084EF20F0042A070ECD
:10411A00046492EF20F094EF20F052EF20F0035065
:10412A001200000E0114096E000E02140A6E800EAF
:10413A0003140B6E7F0E04140C6E09500A100B1038
:10414A000C10D8A4ABEF20F0ADEF20F0B5EF20F0C3
:10415A00000E016E000E026E000E036E000E046E5B
:10416A00000E0514096E000E06140A6E800E07145E
:10417A000B6E7F0E08140C6E09500A100B100C10EF
:10418A00D8A4CAEF20F0CCEF20F0D4EF20F0000E34
:10419A00056E000E066E000E076E000E086E0550C4
:1041AA0001180FE1065002180CE10750031809E143
:1041BA0008500418D8B4E4EF20F0E6EF20F0E9EF55
:1041CA0020F0D890EAEF20F0D8801200000E0E6E90
:1041DA000ABEF4EF20F0F2EF20F0FAEF20F0096CBB
:1041EA000A1ED8B00A2A010E0E6E0CBE01EF21F08B
:1041FA00FFEF20F005EF21F00B6C0C1ED8B00C2A53
:10420A000B500C10D8B40CEF21F00EEF21F032EF66
:10421A0021F0010E0D6E16EF21F0D8900B360C36F8
:10422A000D2A0CAE1BEF21F01DEF21F012EF21F049
:10423A000B50095C0C500A58D8A026EF21F028EF41
:10424A0021F02CEF21F00B50095E0C500A5AD8903D
:10425A000C320B320D2E1DEF21F00E50D8B438EF70
:10426A0021F03AEF21F03EEF21F0096C0A1ED8B096
:10427A000A2A09C009F00AC00AF01200000E066EE6
:10428A0004BE4CEF21F04AEF21F052EF21F0036C0B
:10429A00041ED8B0042A010E066E02BE59EF21F0A0
:1042AA0057EF21F05FEF21F0016C021ED8B0022A0D
:1042BA00010E061A000E086E000E076E0350041057
:1042CA00D8B46AEF21F06CEF21F094EF21F0010EDF
:1042DA00056E74EF21F0D89003360436052A04AE31
:1042EA0079EF21F07BEF21F070EF21F0D8900736BB
:1042FA0008360350015C04500258D8A087EF21F019
:10430A0089EF21F08EEF21F00350015E0450025A2A
:10431A000780D89004320332052E7BEF21F0065035
:10432A00D8B49AEF21F09CEF21F0A0EF21F0076CAE
:10433A00081ED8B0082A07C001F008C002F012000F
:10434A000001DDA1ABEF21F0ADEF21F0B7EF21F0D5
:10435A0013C00AF014C00BF011C00CF012C00DF01B
:10436A0039EC1EF016BEBCEF21F0BEEF21F0C4EF0F
:10437A0021F015C01AF016C01BF0C8EF21F0000E8C
:10438A001B6E000E1A6E000E196E000E186EDAEF12
:10439A0021F0000E026E200E016E11C003F012C051
:1043AA0004F008EC22F0184A192A1A50185C19501D
:1043BA00800A176E1B50800A1758D8A0E7EF21F021
:1043CA00E9EF21F0CEEF21F00001DDB1EFEF21F0AE
:1043DA00F1EF21F0FBEF21F013C00AF014C00BF04B
:1043EA0011C00CF012C00DF039EC1EF013C001F030
:1043FA0014C002F051EC1DF01A500124116E1B502A
:10440A000220126E120003500410D8B40FEF22F0EB
:10441A0011EF22F01AEF22F003500410D8A418EF7B
:10442A0022F01AEF22F01FEF22F00150C5EC1CF027
:10443A006CEF22F020EE04F00350D9260450DA2261
:10444A00DE50DE10D8B42CEF22F02EEF22F049EF26
:10445A0022F020EE04F00350D9260450DA2210EE9E
:10446A0002F00350E1260450E222DE50E65CE650F8
:10447A00800A096EDE50800A0958D8B047EF22F048
:10448A0049EF22F06CEF22F020EE02F00350D92619
:10449A000450DA22DECF05F0DDCF06F003C0D9FFE3
:1044AA0004C0DAFFDECF07F0DDCF08F0055007249D
:1044BA00D96E06500820DA6E01C0DFFF20EE02F046
:1044CA000350D9260450DA22DE2A000EDD22120019
:1044DA0009500A100B100C100D100E100F101010AE
:1044EA00D8B47AEF22F07CEF22F0C4EF22F0010E6A
:1044FA00116E8AEF22F0D89009360A360B360C363E
:10450A000D360E360F361036112A10AE8FEF22F006
:10451A0091EF22F080EF22F00950015C0A50025814
:10452A000B5003580C5004580D5005580E5006589D
:10453A000F50075810500858D8A0A6EF22F0A8EF3D
:10454A0022F0B8EF22F00950015E0A50025A0B50CD
:10455A00035A0C50045A0D50055A0E50065A0F5061
:10456A00075A1050085AD89010320F320E320D32B4
:10457A000C320B320A320932112E91EF22F001C0AD
:10458A0001F002C002F003C003F004C004F005C049
:10459A0005F006C006F007C007F008C008F01200D0
:1045AA0001C008F002C009F003C00AF004C00BF011
:1045BA000506D8A00606052806E10628D8A4E8EFCD
:1045CA0022F0EAEF22F0F7EF22F0000E026E000E60
:1045DA00016E3FEF23F0084A092A0A4A0B2A050608
:1045EA00D8A0060608C0D9FF09C0DAFFDF50D8B440
:1045FA0001EF23F003EF23F02EEF23F00AC0F6FFBA
:10460A000BC0F7FF0800F5500009D8B40FEF23F0EC
:10461A0011EF23F02EEF23F005500610D8B418EF4F
:10462A0023F01AEF23F02EEF23F008C0D9FF09C0B8
:10463A00DAFFDF50076E0AC0F6FF0BC0F7FF08006B
:10464A00F5500718D8B42CEF23F02EEF23F0F0EF33
:10465A0022F008C0D9FF09C0DAFFDF50076E0AC08E
:10466A00F6FF0BC0F7FF0800F550075C016E026AFF
:10467A00D8A00206120020EE11F0070EDE6AE80644
:10468A00FDE209500A100B100C100D100E100F103D
:10469A001010D8B453EF23F055EF23F0A7EF23F00F
:1046AA00010E196E63EF23F0D89009360A360B36DD
:1046BA000C360D360E360F361036192A10AE68EF44
:1046CA0023F06AEF23F059EF23F0D890113612360F
:1046DA001336143615361636173618360950015C55
:1046EA000A5002580B5003580C5004580D500558E4
:1046FA000E5006580F50075810500858D8A088EF87
:10470A0023F08AEF23F09BEF23F00950015E0A5051
:10471A00025A0B50035A0C50045A0D50055A0E50A7
:10472A00065A0F50075A1050085A1180D890103262
:10473A000F320E320D320C320B320A320932192E76
:10474A006AEF23F011C001F012C002F013C003F0A7
:10475A0014C004F015C005F016C006F017C007F023
:10476A0018C008F01200C7C00BF0C8C00CF0C9C0CE
:10477A000DF0CAC00EF001C00BF002C00CF003C06D
:10478A000DF004C00EF00BC005F00CC006F00DC011
:10479A0007F00EC008F0180ED8EF23F0D8900832B0
:1047AA00073206320532E82ED3EF23F00550096EA0
:1047BA000A6A09500A10D8A4E5EF23F0E7EF23F0BC
:1047CA0007EF24F0D8900B34056E0C34066E0D34C6
:1047DA00076E0E34086E0550061007100810D8A48C
:1047EA00F9EF23F0FBEF23F001EF24F0000E026E45
:1047FA00020E016E36EF24F0000E026E030E016EF9
:10480A0036EF24F009280A10D8A40EEF24F010EF8E
:10481A0024F032EF24F00BC005F00CC006F00DC0F6
:10482A0007F00EC008F0090ED8900536063607368E
:10483A000836E82E19EF24F0055006100710081064
:10484A00D8B42AEF24F02DEF24F0010E2EEF24F035
:10485A00000E016E026A36EF24F0000E026E040E9C
:10486A00016E1200000E2814306E000E2914316EEB
:10487A00800E2A14326E7F0E2B14336E3050311094
:10488A0032103310D8A44CEF24F04EEF24F056EF38
:10489A0024F0000E286E000E296E000E2A6E000EFD
:1048AA002B6E000E2C14306E000E2D14316E800EFD
:1048BA002E14326E7F0E2F14336E30503110321098
:1048CA003310D8A46BEF24F06DEF24F075EF24F0C9
:1048DA00000E2C6E000E2D6E000E2E6E000E2F6E28
:1048EA002BAE7AEF24F07CEF24F085EF24F0286CCD
:1048FA00291ED8B0292A2A1ED8B02A2A800E2B5659
:10490A002FAE8AEF24F08CEF24F095EF24F02C6C74
:10491A002D1ED8B02D2A2E1ED8B02E2A800E2F5624
:10492A00000E281A000E291A000E2A1A800E2B1AB7
:10493A00000E2C1A000E2D1A000E2E1A800E2F1A97
:10494A002C50285C2D5029582E502A582F502B585D
:10495A00D8B0B2EF24F0B4EF24F0B7EF24F0D89037
:10496A00B8EF24F0D8801200033404340A6E0A50D7
:10497A00D8A4C2EF24F0C4EF24F0CEEF24F0000E46
:10498A00016E000E026E000E036E000E046E3BEF07
:10499A0025F001C005F002C006F003C007F004C00C
:1049AA0008F0200EDEEF24F0D890083207320632E3
:1049BA000532E82ED9EF24F00550096E038EFF0E5A
:1049CA000116FF0E0216FF0E0316000E0416960EAF
:1049DA000A5E0ABEF5EF24F0F3EF24F00BEF25F0A0
:1049EA000A50800A970FD8B0FDEF24F0FFEF24F0A9
:1049FA0001EF25F0C4EF24F0D890043203320232DA
:104A0A0001320A3E01EF25F023EF25F01F0E0A645A
:104A1A0011EF25F013EF25F01BEF25F0C4EF24F07A
:104A2A00D89001360236033604360A060A50D8A44C
:104A3A0021EF25F023EF25F015EF25F00950D8B422
:104A4A0029EF25F02BEF25F033EF25F0041E031E86
:104A5A00021E016C000E02220322042201C001F090
:104A6A0002C002F003C003F004C004F0120020EEFA
:104A7A001CF0050EDE6AE806FDE29D0EF66E7C0E5F
:104A8A00F76E20EE10F0050E0900F5CFDEFFE806FE
:104A9A00FBE221EEE2F010EE04F00B0EDBCFE3FFB7
:104AAA00E806FCE2970EF66E7C0EF76E20EE16F024
:104ABA00050E0900F5CFDEFFE806FBE2010E246EC3
:104ACA00CBEF25F0E9EC1CF0226E000E256E255086
:104ADA00020D040EF324D96E000EF420DA6EDECF36
:104AEA0001F0DDCF02F01C0E2524D96EDA6A000E21
:104AFA00DA22DF50036E03500126000E022201C0A3
:104B0A00F6FF02C0F7FF0800F5502218D8A490EF6C
:104B1A0025F092EF25F0BAEF25F01C0E2524D96E68
:104B2A00DA6A000EDA22DF2A100E2524D96EDA6A32
:104B3A00000EDA221C0E2524E16EE26A000EE22241
:104B4A00DE50E618D8A4ACEF25F0AEEF25F0C2EFA0
:104B5A0025F0160E2524D96EDA6A000EDA22DF5005
:104B6A00236E000E246EC2EF25F01C0E2524D96E8A
:104B7A00DA6A000EDA22000EDF6E252A050E256497
:104B8A00C9EF25F0CBEF25F06CEF25F02450D8A41F
:104B9A00D1EF25F0D3EF25F067EF25F0235012006F
:104BAA00000E166E000E156E000E0F6E000E0E6EC3
:104BBA00E1EF25F0084A092A010E146E08C0F6FF33
:104BCA0009C0F7FF0800F550200AD8B4EFEF25F026
:104BDA00F1EF25F00EEF26F0F70E0A6EFF0E0B6EC0
:104BEA0008C0F6FF09C0F7FF0800F5500C6E0D6A01
:104BFA000A500C260B500D220D5009E1050E0C5CD3
:104C0A00D8A00AEF26F00CEF26F00EEF26F0000EE1
:104C1A00146E14C010F0116A10501110D8A418EFB5
:104C2A0026F01AEF26F0DFEF25F024EF26F0000E2B
:104C3A000F6E010E0E6E084A092A59EF26F008C0B7
:104C4A00F6FF09C0F7FF0800F5500A6E0B6A0B5011
:104C5A00000AD8B433EF26F059EF26F00A502B0A8F
:104C6A00D8B420EF26F0060AD8B41CEF26F059EF84
:104C7A0026F015C001F016C002F0000E046E0A0EEE
:104C8A00036EFBEC1CF008C0F6FF09C0F7FF080032
:104C9A00F550015E000E025A300E0124156E000E08
:104CAA000220166E20EF26F0D00E0A6EFF0E0B6E53
:104CBA0008C0F6FF09C0F7FF0800F5500C6E0D6A30
:104CCA000A500C260B500D220D500AE10A0E0C5CFC
:104CDA00D8A072EF26F075EF26F0010E76EF26F0D7
:104CEA00000E126E136A12501310D8A47FEF26F02A
:104CFA0081EF26F03EEF26F00E500F10D8A488EF71
:104D0A0026F08AEF26F098EF26F015C00AF016C0B2
:104D1A000BF00A1E0B1E0A4A0B2A0AC008F00BC027
:104D2A0009F09CEF26F015C008F016C009F0120031
:104D3A00096E0950D8B4A4EF26F0A6EF26F0C8EF02
:104D4A0026F004BEADEF26F0ABEF26F0C8EF26F052
:104D5A0001C005F002C006F003C007F004C008F065
:104D6A00051E061E071E081E052A000E0622072219
:104D7A00082205C00BF006C00CF007C00DF008C0F1
:104D8A000EF0D0EF26F001C00BF002C00CF003C009
:104D9A000DF004C00EF00150021003100410D8A444
:104DAA00D9EF26F0DBEF26F0E5EF26F0000E016ED4
:104DBA00000E026E000E036E000E046E76EF27F0F0
:104DCA00960E0A6EEFEF26F00A2AD8900E320D32AE
:104DDA000C320B32000E0B14056E000E0C14066E0C
:104DEA00000E0D14076EFE0E0E14086E0550061006
:104DFA0007100810D8A404EF27F006EF27F0E9EF10
:104E0A0026F014EF27F00A2A010E0B26000E0C22B8
:104E1A000D220E22D8900E320D320C320B32000EB9
:104E2A000B14056E000E0C14066E000E0D14076EA0
:104E3A00FF0E0E14086E0550061007100810D8A4AD
:104E4A0029EF27F02BEF27F008EF27F033EF27F0B1
:104E5A000A06D8900B360C360D360E360DBE38EFD4
:104E6A0027F03AEF27F042EF27F0020E0A6040EFF0
:104E7A0027F042EF27F02DEF27F00AB047EF27F08F
:104E8A0049EF27F04AEF27F00D9ED8900A320AC060
:104E9A0005F0066A076A086A05C008F0076A066A22
:104EAA00056A05500B1206500C1207500D120850D5
:104EBA000E120950D8B464EF27F066EF27F06EEFB0
:104ECA0027F004BE6DEF27F06BEF27F06EEF27F0A7
:104EDA000E8E0BC001F00CC002F00DC003F00EC024
:104EEA0004F012000001DCBF7DEF27F07FEF27F00E
:104EFA0080EF27F0DD93DCBF8DEF27F0DC5106E170
:104F0A00DB05D8B08BEF27F08DEF27F093EF27F072
:104F1A00000E2F6E010E2E6E97EF27F0DBC02EF0DB
:104F2A00DCC02FF0D9C030F0DAC031F01EC032F048
:104F3A001FC033F020C034F021C035F022C036F053
:104F4A0023C037F024C038F025C039F0000E3B6E7C
:104F5A004F0E3A6E000E0101876F2AEF28F03A06CB
:104F6A00D8A03B06380E3A24D96E010E3B20DA6EE1
:104F7A0032C001F033C002F034C003F035C004F08F
:104F8A0036C005F037C006F038C007F039C008F05F
:104F9A000A0E096E000E0A6E000E0B6E000E0C6EE3
:104FAA00000E0D6E000E0E6E000E0F6E000E106ECD
:104FBA006DEC22F001C026F002C027F003C028F0F1
:104FCA0004C029F005C02AF006C02BF007C02CF057
:104FDA0008C02DF02650300FDF6E2E06D8A02F06FF
:104FEA003006D8A0310632C001F033C002F034C016
:104FFA0003F035C004F036C005F037C006F038C0FB
:10500A0007F039C008F00A0E096E000E0A6E000E8B
:10501A000B6E000E0C6E000E0D6E000E0E6E000E64
:10502A000F6E000E106E40EC23F001C032F002C089
:10503A0033F003C034F004C035F005C036F006C0C2
:10504A0037F007C038F008C039F03A503B10D8B4EE
:10505A0031EF28F033EF28F064EF28F032503310A4
:10506A00341035103610371038103910D8A440EFE4
:10507A0028F042EF28F0B4EF27F02FBE4FEF28F0C8
:10508A002F5006E12E04D8B04DEF28F04FEF28F04C
:10509A00B4EF27F031BE5AEF28F0315008E130045E
:1050AA00D8A05AEF28F05CEF28F064EF28F000014E
:1050BA00DDB362EF28F064EF28F0B4EF27F01CC0EC
:1050CA0011F01DC012F0380E3A24136E010E3B2067
:1050DA00146E30C015F031C016F0A5EC21F011C0E5
:1050EA001CF012C01DF01200C3C02AF0C4C02BF07D
:1050FA00C5C02CF0C6C02DF01AC02AF01BC02BF078
:10510A001CC02CF01DC02DF0810E1E6EFF0E1F6EEE
:10511A002AC020F02BC021F02CC022F02DC023F091
:10512A00180E9DEF28F0D8902332223221322032F5
:10513A00E82E98EF28F020501E24286E000E1F201B
:10514A00296E29BEB2EF28F0295009E1170E285C12
:10515A00D8A0B2EF28F0B4EF28F0BEEF28F01AC0BA
:10516A001AF01BC01BF01CC01CF01DC01DF081EF03
:10517A0029F029BEC3EF28F0C5EF28F035EF29F052
:10518A0028C01EF0FF0E1F6EFF0E206E7F0E216ECE
:10519A00000E226E1E66D4EF28F0DCEF28F02234CF
:1051AA002232213220321F321E2ECFEF28F01FC0AA
:1051BA0024F020C025F021C026F022C027F0245078
:1051CA002A141E6E25502B141F6E26502C14206E86
:1051DA0027502D14216E1E501F1020102110D8A404
:1051EA00F9EF28F0FBEF28F0FDEF28F0B4EF28F0F4
:1051FA002AC01EF02BC01FF02CC020F02DC021F0B9
:10520A00200E0DEF29F0D890213220321F321E32A3
:10521A00E82E08EF29F01E501F1020102110D8B4D4
:10522A0019EF29F01BEF29F023EF29F024502A2641
:10523A0025502B2226502C2227502D22241C1E6E4C
:10524A00251C1F6E261C206E271C216E1E502A1636
:10525A001F502B1620502C1621502D1679EF29F0AD
:10526A002AC01EF02BC01FF02CC020F02DC021F048
:10527A00200E45EF29F0D890213220321F321E32FB
:10528A00E82E40EF29F01E501F1020102110D8A43C
:10529A0051EF29F053EF29F05DEF29F0000E2A6E45
:1052AA00000E2B6E000E2C6E000E2D6E79EF29F07B
:1052BA00D8902A341E6E2B341F6E2C34206E2D3457
:1052CA00216E1E501F1020102110D8B46FEF29F044
:1052DA0071EF29F079EF29F0000E2A6E000E2B6E7D
:1052EA00800E2C6EBF0E2D6E2AC01AF02BC01BF03A
:1052FA002CC01CF02DC01DF012000450800B116E42
:10530A0004500424186E03AE8DEF29F08FEF29F0B4
:10531A0090EF29F018801850D8B496EF29F098EF3A
:10532A0029F0ADEF29F01828D8A49EEF29F0A0EFB4
:10533A0029F0A8EF29F0000E016E000E026E000E91
:10534A00036E000E046E038E000E046EB5EF29F094
:10535A00000E016E000E026E000E036E000E046E49
:10536A000850800B111A08500824196E07AEC0EFB6
:10537A0029F0C2EF29F0C3EF29F019801950D8B4E7
:10538A00C9EF29F0CBEF29F0E0EF29F01928D8A4CA
:10539A00D1EF29F0D3EF29F0DBEF29F0000E056EEB
:1053AA00000E066E000E076E000E086E078E000EC7
:1053BA00086EE8EF29F0000E056E000E066E000E6C
:1053CA00076E000E086E0550061007100810D8A4C4
:1053DA00F1EF29F0F3EF29F00BEF2AF0000E016E3E
:1053EA00000E026E000E036E000E046E800E031293
:1053FA007F0E04121150041201C001F002C002F023
:10540A0003C003F004C004F04EEF2BF01850D8A4E8
:10541A0011EF2AF013EF2AF01DEF2AF0000E016EA9
:10542A00000E026E000E036E000E046E4EEF2BF09D
:10543A00195018C009F00A6A095E000E0A5A7F0E4E
:10544A000924126E000E0A20136E01C00DF002C06C
:10545A000EF003C00FF004C010F0000E016E000E33
:10546A00026E000E036E000E046E000E146E000E25
:10547A00156E000E166E000E176E000E196E7EEF78
:10548A002AF01950D8B44CEF2AF04EEF2AF065EF03
:10549A002AF0D8900D360E360F361036D8900136CF
:1054AA0002360336043617AE5DEF2AF05FEF2AF0B4
:1054BA0060EF2AF00180D890143615361636173662
:1054CA0005500D5C06500E5807500F5808501058DA
:1054DA00D8A072EF2AF074EF2AF07DEF2AF0178C29
:1054EA0005500D5E06500E5A07500F5A0850105AB2
:1054FA00192A190E196484EF2AF086EF2AF046EF6A
:10550A002AF00D500E100F101010D8B48FEF2AF099
:10551A0091EF2AF0A9EF2AF01480A9EF2AF0D89087
:10552A00013602360336043617AE9EEF2AF0A0EF94
:10553A002AF0A1EF2AF00180D890143615361636D3
:10554A0017361206D8A0130603AEAEEF2AF0B0EF54
:10555A002AF094EF2AF0000E196E17AEB7EF2AF070
:10556A00B9EF2AF0DDEF2AF0FF0E1414096EFF0ED0
:10557A0015140A6EFF0E16140B6E7F0E17140C6E9E
:10558A0009500A100B100C10D8B4CEEF2AF0D0EF45
:10559A002AF0D4EF2AF0010E196EDDEF2AF001A0ED
:1055AA00D9EF2AF0DBEF2AF0DDEF2AF0D0EF2AF06C
:1055BA001950D8B4E3EF2AF0E5EF2AF009EF2BF0FF
:1055CA00010E0126000E02220322042204A0F0EF9B
:1055DA002AF0F2EF2AF009EF2BF001C009F002C01D
:1055EA000AF003C00BF004C00CF00C340C320B327E
:1055FA000A32093209C001F00AC002F00BC003F0F6
:10560A000CC004F0124A132A13BE14EF2BF01350E5
:10561A0008E11228D8A014EF2BF016EF2BF021EF97
:10562A002BF0000E136E1268000E016E000E026E51
:10563A00000E036E000E046E13BE2EEF2BF01350F5
:10564A0006E11204D8B02CEF2BF02EEF2BF03CEF32
:10565A002BF0000E136E000E126E000E016E000E7D
:10566A00026E000E036E000E046E000E116E12C062
:10567A0018F018A043EF2BF045EF2BF048EF2BF072
:10568A00038E49EF2BF0039ED8901830046EFFEF7B
:10569A0029F012001250800B1B6E12501224216E38
:1056AA0011AE5AEF2BF05CEF2BF05DEF2BF021805F
:1056BA002150D8B463EF2BF065EF2BF078EF2BF085
:1056CA002128D8A46BEF2BF06DEF2BF075EF2BF0A0
:1056DA00000E0F6E000E106E000E116E000E126E8E
:1056EA00118E80EF2BF0000E0F6E000E106E000E62
:1056FA00116E000E126E1650800B1B1A16501624CD
:10570A00206E15AE8BEF2BF08DEF2BF08EEF2BF07A
:10571A0020802050D8B494EF2BF096EF2BF0A9EF0D
:10572A002BF02028D8A49CEF2BF09EEF2BF0A6EFAD
:10573A002BF0000E136E000E146E000E156E000E86
:10574A00166E158EB1EF2BF0000E136E000E146E4E
:10575A00000E156E000E166E2050D8B4B7EF2BF05F
:10576A00B9EF2BF0C1EF2BF02150D8A4BFEF2BF0EB
:10577A00C1EF2BF0CBEF2BF0000E0F6E000E106E68
:10578A00000E116E000E126E63EF2DF015500F020F
:10579A00F3CF26F0F4CF27F026501C6E1D6A1E6A3E
:1057AA001F6A2750226E236A246A256A145010023F
:1057BA00F3CF26F0F4CF27F026501C26000E1D2228
:1057CA001E221F2227502226000E232224222522AF
:1057DA0013501102F3CF26F0F4CF27F026501C26DF
:1057EA00000E1D221E221F2227502226000E2322CF
:1057FA00242225221EC01FF01DC01EF01CC01DF051
:10580A001C6A13501002F3CF26F0F4CF27F026506B
:10581A001C2627501D22000E1E22000E1F22145085
:10582A000F02F3CF26F0F4CF27F026501C2627507C
:10583A001D22000E1E22000E1F221EC01FF01DC0B8
:10584A001EF01CC01DF01C6A13500F02F3CF26F085
:10585A00F4CF27F026501C2627501D22000E1E22A8
:10586A00000E1F2215501002F3CF26F0F4CF27F0B6
:10587A002650222627502322000E2422000E2522FB
:10588A0014501102F3CF26F0F4CF27F02650222627
:10589A0027502322000E2422000E25221550110221
:1058AA00F3CF26F0F4CF27F02650176E2750186E44
:1058BA00196A1A6A19C01AF018C019F017C018F034
:1058CA00176A1750222618502322195024221A50D8
:1058DA0025221CC017F01DC018F01EC019F01FC0E9
:1058EA001AF0190E7EEF2CF0D8901A3219321832AB
:1058FA001732E82E79EF2CF017502226185023225F
:10590A00195024221A5025221EC01FF01DC01EF055
:10591A001CC01DF01C6A205021C017F0186A1726F7
:10592A00000E1822820E1724266EFF0E1820276EEC
:10593A00B4EF2CF0D89022362336243625361FAE03
:10594A00A9EF2CF0ABEF2CF0ACEF2CF02280D89022
:10595A001C361D361E361F362606D8A0270624AE4C
:10596A00B9EF2CF0BBEF2CF09FEF2CF0000E206E5D
:10597A001FAEC2EF2CF0C4EF2CF0E8EF2CF0FF0EB4
:10598A001C14176EFF0E1D14186EFF0E1E14196ECE
:10599A007F0E1F141A6E1750181019101A10D8B447
:1059AA00D9EF2CF0DBEF2CF0DFEF2CF0010E206E9C
:1059BA00E8EF2CF022A0E4EF2CF0E6EF2CF0E8EF71
:1059CA002CF0DBEF2CF02050D8B4EEEF2CF0F0EFF7
:1059DA002CF014EF2DF0010E2226000E2322242291
:1059EA00252225A0FBEF2CF0FDEF2CF014EF2DF073
:1059FA0022C017F023C018F024C019F025C01AF0ED
:105A0A001A341A3219321832173217C022F018C053
:105A1A0023F019C024F01AC025F0264A272A27BEE7
:105A2A001FEF2DF0275008E12628D8A01FEF2DF0F0
:105A3A0021EF2DF02BEF2DF0000E226E000E236EBB
:105A4A00800E246E7F0E256E59EF2DF027BE38EF9B
:105A5A002DF0275006E12604D8B036EF2DF038EFA6
:105A6A002DF044EF2DF0000E226E000E236E000E74
:105A7A00246E000E256E000E1B6E59EF2DF026C007
:105A8A0021F0FF0E2216FF0E23167F0E2416000E9B
:105A9A00251621A053EF2DF055EF2DF056EF2DF0DE
:105AAA00248ED8902130256E1B50251222C00FF06B
:105ABA0023C010F024C011F025C012F012000450C7
:105ACA00800B0D6E045004240F6E03AE6FEF2DF0A1
:105ADA0071EF2DF072EF2DF00F800F50D8B478EFE0
:105AEA002DF07AEF2DF08FEF2DF00F28D8A480EF4C
:105AFA002DF082EF2DF08AEF2DF0000E016E000ED0
:105B0A00026E000E036E000E046E038E000E046E0B
:105B1A0097EF2DF0000E016E000E026E000E036E5E
:105B2A00000E046E0850800B0E6E0D500E18D8B47D
:105B3A00A1EF2DF0A3EF2DF0A4EF2DF00D8C08505E
:105B4A0008240E6E07AEACEF2DF0AEEF2DF0AFEFDE
:105B5A002DF00E800E50D8B4B5EF2DF0B7EF2DF022
:105B6A00CCEF2DF00E28D8A4BDEF2DF0BFEF2DF00D
:105B7A00C7EF2DF0000E056E000E066E000E076EC2
:105B8A00000E086E078E000E086ED4EF2DF0000E80
:105B9A00056E000E066E000E076E000E086E0F50A0
:105BAA000E5CD8B0DBEF2DF0DDEF2DF004EF2EF018
:105BBA000DACE2EF2DF0E4EF2DF0E6EF2DF0800EC4
:105BCA000D1A0FC010F00EC00FF010C00EF001C079
:105BDA0010F005C001F010C005F002C010F006C0B8
:105BEA0002F010C006F003C010F007C003F010C0A6
:105BFA0007F004C010F008C004F010C008F0000E4E
:105C0A00106E0F500EC009F00A6A095E000E0A5A99
:105C1A000ABE19EF2EF00A5009E11A0E095CD8A043
:105C2A0019EF2EF01BEF2EF052EF2EF0015002105A
:105C3A0003100410D8A424EF2EF027EF2EF0010E43
:105C4A0028EF2EF0000E106E000E016E000E026E8E
:105C5A00000E036E000E046E0EC00FF05BEF2EF006
:105C6A0010A03AEF2EF03CEF2EF042EF2EF0D89033
:105C7A0010300109106E44EF2EF0D890103201A0B6
:105C8A0049EF2EF04BEF2EF04CEF2EF0108E04342D
:105C9A0004320332023201320F2A0E500F5CD8A0AE
:105CAA0059EF2EF05BEF2EF035EF2EF00DBC60EFC2
:105CBA002EF062EF2EF0A2EF2EF00F50D8A468EF6C
:105CCA002EF06AEF2EF074EF2EF0000E016E000E29
:105CDA00026E000E036E000E046EC3EF2FF0055025
:105CEA00012606500222075003220850042204A06B
:105CFA0081EF2EF083EF2EF02FEF2FF010A088EF18
:105D0A002EF08AEF2EF090EF2EF0D8901030010985
:105D1A00106E92EF2EF0D890103201A097EF2EF06D
:105D2A0099EF2EF09AEF2EF0108E043404320332DB
:105D3A00023201320F2A2FEF2FF00550015C065074
:105D4A000258075003580450800A096E0850800A06
:105D5A000958D8B0B3EF2EF0B5EF2EF0E0EF2EF0E1
:105D6A000150055C096E025006580A6E0350075826
:105D7A000B6E045008580C6EFF0E0924016EFF0EBC
:105D8A000A20026EFF0E0B20036EFF0E0C20046E1B
:105D9A00800E0D1A106C1050D8A4D6EF2EF0D8EF42
:105DAA002EF0E8EF2EF0010E0126000E0222032249
:105DBA000422E8EF2EF00550015E0650025A075001
:105DCA00035A0850045A0150021003100410D8A4B0
:105DDA00F1EF2EF0F3EF2EF028EF2FF01050D8A4A9
:105DEA00F9EF2EF0FBEF2EF028EF2FF0000E016EE8
:105DFA00000E026E000E036E000E046EC3EF2FF04B
:105E0A00D890013602360336043610AE0FEF2FF063
:105E1A0011EF2FF012EF2FF0018010A017EF2FF0E3
:105E2A0019EF2FF01DEF2FF0D88010361FEF2FF04B
:105E3A00D89010360F50D8B425EF2FF027EF2FF057
:105E4A0028EF2FF00F0603AE2DEF2FF02FEF2FF0D4
:105E5A0005EF2FF0000E0E6E10AE36EF2FF038EF72
:105E6A002FF050EF2FF010C009F07F0E0916D8B4AA
:105E7A0041EF2FF043EF2FF047EF2FF0010E0E6E98
:105E8A0050EF2FF001A04CEF2FF04EEF2FF050EF14
:105E9A002FF043EF2FF00E50D8B456EF2FF058EFF3
:105EAA002FF083EF2FF0010E0126000E02220322AB
:105EBA00042204A063EF2FF065EF2FF083EF2FF099
:105ECA0001C009F002C00AF003C00BF004C00CF0D4
:105EDA000C340C320B320A32093209C001F00AC002
:105EEA0002F00BC003F00CC004F00F28D8B480EF06
:105EFA002FF082EF2FF083EF2FF00F2A0F28D8B45C
:105F0A0089EF2FF08BEF2FF093EF2FF00F50D8A4DB
:105F1A0091EF2FF093EF2FF0A5EF2FF0000E016E07
:105F2A00000E026E000E036E000E046E0F50D8A40F
:105F3A00A1EF2FF0A3EF2FF0A5EF2FF0000E0D6EBB
:105F4A000FA0AAEF2FF0ACEF2FF0AFEF2FF0038ED8
:105F5A00B0EF2FF0039ED8900F30046E0DAEB8EF5D
:105F6A002FF0BAEF2FF0BBEF2FF0048E01C001F033
:105F7A0002C002F003C003F004C004F0120042C0E1
:105F8A00D9FF43C0DAFFDECFF6FFDDCFF7FF080007
:105F9A00F550250AD8A4D4EF2FF0D6EF2FF02BEF27
:105FAA0032F042C0D9FF43C0DAFFDE2A000EDD22FA
:105FBA00000E0001DA6F000ED96FD9C0DDF0DAC029
:105FCA00DEF0DB69DC6942C0D9FF43C0DAFFDECF0D
:105FDA00F6FFDDCFF7FF0800F5502E0AD8A4F8EF38
:105FEA002FF0FAEF2FF077EF30F0000EDC6F000E93
:105FFA00DB6F42C0D9FF43C0DAFFDE2A000EDD2282
:10600A0042C0D9FF43C0DAFFDECFF6FFDDCFF7FF8C
:10601A000800F5502A0AD8A415EF30F017EF30F02F
:10602A0034EF30F042C0D9FF43C0DAFFDE2A000E57
:10603A00DD2244C0D9FF45C0DAFFDFCF46F0020EA9
:10604A00DE26DFCF47F0000EDD2246C0D9FF47C06B
:10605A00DAFFDECFDBF0DDCFDCF077EF30F042C0E5
:10606A00D9FF43C0DAFFDECF08F0DDCF09F0D5EC67
:10607A0025F008C0DBF009C0DCF04BEF30F042C07D
:10608A00D9FF43C0DAFFDE2A000EDD22D00E466EAB
:10609A00FF0E476E42C0D9FF43C0DAFFDECFF6FFDC
:1060AA00DDCFF7FF0800F550486E496A465048268A
:1060BA004750492249500AE10A0E485CD8A068EFC5
:1060CA0030F06BEF30F0010E6CEF30F0000E526ED4
:1060DA00536A52505310D8A475EF30F077EF30F06E
:1060EA0044EF30F042C0D9FF43C0DAFFDECFF6FFFB
:1060FA00DDCFF7FF0800F550076E086A81EC1FF044
:10610A0007505A6E5A50D8B48DEF30F08FEF30F0F6
:10611A00C7EF30F042C0D9FF43C0DAFFDECF46F006
:10612A00DDCF47F0010E4626000E472246C0F6FF95
:10613A0047C0F7FF0800F550076E086A81EC1FF0A8
:10614A0007505B6E5B50D8B4ADEF30F0AFEF30F074
:10615A00C7EF30F042C0D9FF43C0DAFFDECF46F0C6
:10616A00DDCF47F0020E4626000E472246C0F6FF54
:10617A0047C0F7FF0800F550076E086A81EC1FF068
:10618A0007505C6E660E5A18D8A4CEEF30F0D0EFE6
:10619A0030F010EF31F042C0D9FF43C0DAFFDECF52
:1061AA00F6FFDDCFF7FF0800F5CF5DF042C0D9FF5B
:1061BA0043C0DAFFDE2A000EDD2244C0D9FF45C003
:1061CA00DAFFDFCF46F0040EDE26DFCF47F0000EFF
:1061DA00DD2246C0D9FF47C0DAFFDECF56F0DECF58
:1061EA0057F0DECF58F0DECF59F040C034F041C04E
:1061FA0035F056C036F057C037F058C038F059C09D
:10620A0039F05DC03AF01FEC38F034C040F035C0C8
:10621A0041F046EF32F05A0E016E000E026EEA0E9F
:10622A00036E7F0E046E000E066E020E056ED5EC2E
:10623A0022F001500210D8A425EF31F027EF31F0F7
:10624A00A2EF31F042C0D9FF43C0DAFFDECF46F0F9
:10625A00DDCF47F0010E4626000E472246C0F6FF64
:10626A0047C0F7FF0800F5CF5DF0BF0E466EFF0E80
:10627A00476E42C0D9FF43C0DAFFDECFF6FFDDCF5B
:10628A00F7FF0800F550486E496A465048264750BD
:10629A00492249500AE11A0E485CD8A057EF31F05A
:1062AA005AEF31F0010E5BEF31F0000E546E556A71
:1062BA0054505510D8B464EF31F066EF31F080EFE6
:1062CA0031F044C0D9FF45C0DAFFDFCF46F0040EF3
:1062DA00DE26DFCF47F0000EDD2246C0D9FF47C0D9
:1062EA00DAFFDECF56F0DECF57F0DECF58F0DECF42
:1062FA0059F098EF31F044C0D9FF45C0DAFFDFCF3B
:10630A0046F0040EDE26DFCF47F0000EDD2246C03F
:10631A00D9FF47C0DAFFDECF56F0DECF57F0DECF27
:10632A0058F0DECF59F0020E42C0D9FF43C0DAFF5F
:10633A00DE26000EDD22FAEF30F042C0D9FF43C05C
:10634A00DAFFDECFF6FFDDCFF7FF0800F550750A5A
:10635A00D8A4B2EF31F0B4EF31F0F5EF31F042C02A
:10636A00D9FF43C0DAFFDE2A000EDD2244C0D9FF7E
:10637A0045C0DAFFDFCF46F0020EDE26DFCF47F058
:10638A00000EDD2246C0D9FF47C0DAFFDECF48F053
:10639A00DDCF49F048C04AF049C04BF04C6A4D6A1B
:1063AA004E6A4F6A506A516A40C01CF041C01DF0E3
:1063BA004AC01EF04BC01FF04CC020F04DC021F067
:1063CA004EC022F04FC023F050C024F051C025F037
:1063DA0077EC27F01CC040F01DC041F046EF32F0C8
:1063EA0042C0D9FF43C0DAFFDECFF6FFDDCFF7FFA9
:1063FA000800F550250AD8A405EF32F007EF32F06D
:10640A001EEF32F042C0D9FF43C0DAFFDE2A000E87
:10641A00DD22000E026E250E016E40C003F041C05F
:10642A0004F008EC22F0000E416E010E406E46EFB9
:10643A0032F042C0D9FF43C0DAFFDE2A000EDD2265
:10644A00000E416E000E406E46EF32F042C0D9FF98
:10645A0043C0DAFFDECFF6FFDDCFF7FF0800F550C5
:10646A00016E026A40C003F041C004F008EC22F059
:10647A0042C0D9FF43C0DAFFDE2A000EDD2218EF40
:10648A0032F012009280949094929494959437ECFE
:10649A001DF0020EC26E0E0EC16E8A0EC06E37EC71
:1064AA001DF0000E0A6E420E0B6E7E0E0C6E010E71
:1064BA00F8EC1DF0000E0A6E520E0B6E7E0E0C6E7C
:1064CA00020EF8EC1DF0100E0001B76F390EB66F10
:1064DA000D0EE82EFED7B62FFCD7B72FFAD700D06D
:1064EA00C6EC1CF0C30E0001B66FCD0EE82EFED727
:1064FA00B62FFCD7000E956E37EC1DF0DBEC1CF0C6
:10650A00C6EC1CF0010E0A6E9A0E0B6E7E0E0C6E15
:10651A00010EF8EC1DF022EC1DF026502710D8B41D
:10652A0099EF32F09BEF32F087EF32F0010E0A6EEC
:10653A00110E0B6E7E0E0C6E010EF8EC1DF0C6EC01
:10654A001CF0030E0EEC1DF0010E0A6E7E0E0B6E91
:10655A007E0E0C6E010EF8EC1DF0990E266E7F0E63
:10656A00276E340E286E7F0E296E18EC1EF0010E6F
:10657A000A6EA90E0B6E7D0E0C6E010EF8EC1DF064
:10658A00010E0A6E8C0E0B6E7E0E0C6E010EF8EC6E
:10659A001DF0620E026E7E0E036E52EC1FF0F30EB9
:1065AA00016E7F0E026E13EC20F0C282C280000ED2
:1065BA000A6EA80E0B6E7D0E0C6E010EF8EC1DF025
:1065CA00000E0A6EA80E0B6E7D0E0C6E020EF8EC13
:1065DA001DF0838495928392470E0001B66F1F0EB9
:1065EA00E82EFED7B62FFCD700D083821E0EE82EE7
:1065FA00FED79582000E0001FA6F280EE82EFED70C
:10660A0083B20AEF33F00CEF33F0EEEF32F0500EB4
:10661A00E82EFED783A214EF33F016EF33F0BAEF69
:10662A0035F0010E0001FA6F320EE82EFED750EC5B
:10663A0020F00001F76F50EC20F00001F66F50ECEB
:10664A0020F00001F96F50EC20F00001F86F50ECD7
:10665A0020F00001F36FF651F7C0B6F0B76BB6271A
:10666A00000EB723F951B627000EB723F851B62703
:10667A00000EB723B651F319D8A446EF33F048EF0A
:10668A0033F0E0EF33F0F9C0F5F0F5C0F2F0F55170
:10669A00016E026A036A046A000E9DEC26F001C0CC
:1066AA00D3F002C0D4F003C0D5F004C0D6F0F7C0CE
:1066BA00F4F0F4C0F1F00001F451016E026A036AC9
:1066CA00046A000E9DEC26F001C0CFF002C0D0F0A3
:1066DA0003C0D1F004C0D2F0000E0A6E780E0B6E21
:1066EA007F0E0C6E010EF8EC1DF0000E046E0A0E01
:1066FA00036EF5C001F0026A43EC21F001C009F013
:10670A0002C00AF0000E0C6E0A0E0B6EEBEC20F0C3
:10671A000950300F88EC1DF0F5C009F00A6A000E26
:10672A000C6E0A0E0B6EEBEC20F00950300F88EC61
:10673A001DF0DF0E88EC1DF0090E0A6EFD0E0B6EC1
:10674A007F0E0C6E010EF8EC1DF0000E0A6E080E9C
:10675A000B6E7F0E0C6E020EF8EC1DF0000E046E2E
:10676A000A0E036EF4C001F0026A43EC21F001C084
:10677A0009F002C00AF0000E0C6E0A0E0B6EEBEC6A
:10678A0020F00950300F88EC1DF0F4C009F00A6AB5
:10679A00000E0C6E0A0E0B6EEBEC20F00950300F57
:1067AA0088EC1DF00C0E0A6E8D0E0B6E7F0E0C6EB1
:1067BA00020EF8EC1DF0100E0001B76F390EB66F1D
:1067CA000D0EE82EFED7B62FFCD7B72FFAD700D07A
:1067DA00000E0A6EA80E0B6E7D0E0C6E010EF8EC02
:1067EA001DF0000E0A6ECF0E0B6E7E0E0C6E010EA1
:1067FA00F8EC1DF0060E0A6EAF0E0B6E7D0E0C6ED7
:10680A00010EF8EC1DF0C2B20DEF34F00FEF34F0C8
:10681A0008EF34F0C4500001E06FDF6BDF51C310A2
:10682A00DF6FE051E06FDFC001F0E0C002F0036A01
:10683A00046A000E9DEC26F001C00FF002C010F0B1
:10684A0003C011F004C012F00C0E136E320E146E57
:10685A00C80E156E3D0E166E4FEC2BF00FC0CBF026
:10686A0010C0CCF011C0CDF012C0CEF0C40E0001A1
:10687A009E6F010E9F6FB90EA06F7F0EA16FCBC0E6
:10688A00A2F0CCC0A3F0CDC0A4F0CEC0A5F0CCEC51
:10689A001EF0C282090E0A6EC40E0B6E010E0C6E39
:1068AA00010EF8EC1DF0000E0A6EA50E0B6E7D0EA1
:1068BA000C6E020EF8EC1DF0080E0001B76F9D0E6B
:1068CA00B66F050EE82EFED7B62FFCD7B72FFAD72C
:1068DA0000D0000E286E000E296EF00E2A6E410EB0
:1068EA002B6ECBC02CF0CCC02DF0CDC02EF0CEC07C
:1068FA002FF037EC24F0D8B085EF34F087EF34F07E
:10690A00A0EF34F0000E0A6E320E0B6E7E0E0C6E85
:10691A00020EF8EC1DF08280080E0001B76F9D0E82
:10692A00B66F050EE82EFED7B62FFCD7B72FFAD7CB
:10693A0000D0A1EF34F082904F0E0001F465A8EF69
:10694A0034F0AAEF34F01DEF35F08284000E0A6E9F
:10695A003E0E0B6E7F0E0C6E010EF8EC1DF0000E53
:10696A00046E0A0E036EF5C001F0026A43EC21F0D0
:10697A0001C009F002C00AF0000E0C6E0A0E0B6E7E
:10698A00EBEC20F00950300F88EC1DF0F5C009F04F
:10699A000A6A000E0C6E0A0E0B6EEBEC20F0095020
:1069AA00300F88EC1DF0DF0E88EC1DF00C0E0A6E1D
:1069BA00ED0E0B6E7F0E0C6E010EF8EC1DF082824E
:1069CA00000E0A6EB50E0B6E7E0E0C6E020EF8EC01
:1069DA001DF0000E046E0A0E036EF4C001F0026A86
:1069EA0043EC21F001C009F002C00AF0000E0C6E5F
:1069FA000A0E0B6EEBEC20F00950300F88EC1DF0FC
:106A0A00F4C009F00A6A000E0C6E0A0E0B6EEBEC6B
:106A1A0020F00950300F88EC1DF00E0E0A6EF90EA8
:106A2A000B6E7F0E0C6E020EF8EC1DF0BAEF35F00D
:106A3A00270EF56523EF35F025EF35F06BEF35F0CE
:106A4A0082928284000E0A6E3E0E0B6E7F0E0C6ED0
:106A5A00010EF8EC1DF0000E046E0A0E036EF5C06E
:106A6A0001F0026A43EC21F001C009F002C00AF009
:106A7A00000E0C6E0A0E0B6EEBEC20F00950300F74
:106A8A0088EC1DF0F5C009F00A6A000E0C6E0A0EB9
:106A9A000B6EEBEC20F00950300F88EC1DF0DF0E86
:106AAA0088EC1DF00C0E0A6EFD0E0B6E7F0E0C6E3E
:106ABA00010EF8EC1DF0000E0A6EA80E0B6E7D0E8C
:106ACA000C6E020EF8EC1DF0BAEF35F00B0EF56104
:106ADA0071EF35F073EF35F0B8EF35F08282000EC2
:106AEA000A6EC20E0B6E7E0E0C6E010EF8EC1DF0D5
:106AFA00000E046E0A0E036EF5C001F0026A43EC42
:106B0A0021F001C009F002C00AF0000E0C6E0A0E54
:106B1A000B6EEBEC20F00950300F88EC1DF0F5C03D
:106B2A0009F00A6A000E0C6E0A0E0B6EEBEC20F0EE
:106B3A000950300F88EC1DF0DF0E88EC1DF0100EA6
:106B4A000A6EED0E0B6E7F0E0C6E010EF8EC1DF048
:106B5A00000E0A6EA80E0B6E7D0E0C6E020EF8EC7D
:106B6A001DF0BAEF35F082948292EE0E026E7C0E20
:106B7A00036E52EC1FF0F30E016E7F0E026E13ECE1
:106B8A0020F0CB0E026E7D0E036E52EC1FF0FB0E50
:106B9A00016E7F0E026E13EC20F0880E00019E6FCC
:106BAA00010E9F6FA30EA06F7C0EA16FD3C0A2F03F
:106BBA00D4C0A3F0D5C0A4F0D6C0A5F0CFC0A6F02B
:106BCA00D0C0A7F0D1C0A8F0D2C0A9F0CBC0AAF01B
:106BDA00CCC0ABF0CDC0ACF0CEC0ADF0CCEC1EF06A
:106BEA00880E026E010E036E52EC1FF0000E0A6E42
:106BFA00A80E0B6E7D0E0C6E010EF8EC1DF0000E49
:106C0A000A6EA80E0B6E7D0E0C6E020EF8EC1DF0CD
:106C1A00000E0A6E780E0B6E7F0E0C6E010EF8ECEB
:106C2A001DF0000E046E0A0E036EF5C001F0026A32
:106C3A0043EC21F001C009F002C00AF0000E0C6E0C
:106C4A000A0E0B6EEBEC20F00950300F88EC1DF0A9
:106C5A00F5C009F00A6A000E0C6E0A0E0B6EEBEC18
:106C6A0020F00950300F88EC1DF0DF0E88EC1DF083
:106C7A00090E0A6E710E0B6E7F0E0C6E010EF8EC89
:106C8A001DF0000E0A6E080E0B6E7F0E0C6E020EC1
:106C9A00F8EC1DF0000E046E0A0E036EF4C001F04B
:106CAA00026A43EC21F001C009F002C00AF0000EAA
:106CBA000C6E0A0E0B6EEBEC20F00950300F88ECCC
:106CCA001DF0F4C009F00A6A000E0C6E0A0E0B6E73
:106CDA00EBEC20F00950300F88EC1DF00C0E0A6E18
:106CEA008D0E0B6E7F0E0C6E020EF8EC1DF0170E59
:106CFA000001B76FD50EB66F160EE82EFED7B62F67
:106D0A00FCD7B72FFAD700F0220E026E7E0E036E62
:106D1A0052EC1FF0000E0A6EA80E0B6E7D0E0C6E62
:106D2A00010EF8EC1DF0000E0A6ECF0E0B6E7E0EF1
:106D3A000C6E010EF8EC1DF0060E0A6EAF0E0B6E0D
:106D4A007D0E0C6E010EF8EC1DF0C2B2AFEF36F0FC
:106D5A00B1EF36F0AAEF36F0C4500001E06FDF6BF6
:106D6A00DF51C310DF6FE051E06FDFC001F0E0C018
:106D7A0002F0036A046A000E9DEC26F001C00FF0CF
:106D8A0002C010F003C011F004C012F00C0E136E12
:106D9A00320E146EC80E156E3D0E166E4FEC2BF0A9
:106DAA000FC0CBF010C0CCF011C0CDF012C0CEF0A5
:106DBA00C40E00019E6F010E9F6FB90EA06F7F0E69
:106DCA00A16FCBC0A2F0CCC0A3F0CDC0A4F0CEC0BE
:106DDA00A5F0CCEC1EF0C282090E0A6EC40E0B6E30
:106DEA00010E0C6E010EF8EC1DF0000E0A6EA50ED7
:106DFA000B6E7D0E0C6E020EF8EC1DF0170E0001E4
:106E0A00B76FD50EB66F160EE82EFED7B62FFCD783
:106E1A00B72FFAD700F0000E0A6E780E0B6E7F0EAF
:106E2A000C6E010EF8EC1DF0000E046E0A0E036ED5
:106E3A00F5C001F0026A43EC21F001C009F002C07A
:106E4A000AF0000E0C6E0A0E0B6EEBEC20F00950E5
:106E5A00300F88EC1DF0F5C009F00A6A000E0C6EBE
:106E6A000A0E0B6EEBEC20F00950300F88EC1DF087
:106E7A00DF0E88EC1DF00A0E0A6E710E0B6E7F0E85
:106E8A000C6E010EF8EC1DF0000E0A6E080E0B6E69
:106E9A007F0E0C6E020EF8EC1DF0000E046E0A0E48
:106EAA00036EF4C001F0026A43EC21F001C009F05C
:106EBA0002C00AF0000E0C6E0A0E0B6EEBEC20F00C
:106ECA000950300F88EC1DF0F4C009F00A6A000E70
:106EDA000C6E0A0E0B6EEBEC20F00950300F88ECAA
:106EEA001DF00C0E0A6E8D0E0B6E7F0E0C6E020ECE
:106EFA00F8EC1DF0170E0001B76FD50EB66F160E1F
:106F0A00E82EFED7B62FFCD7B72FFAD700F0000E1F
:106F1A000A6EA80E0B6E7D0E0C6E010EF8EC1DF0BB
:106F2A00000E0A6ECF0E0B6E7E0E0C6E010EF8EC82
:106F3A001DF0060E0A6EAF0E0B6E7D0E0C6E010E64
:106F4A00F8EC1DF0C2B2ACEF37F0AEEF37F0A7EFB6
:106F5A0037F0C4500001E06FDF6BDF51C310DF6F01
:106F6A00E051E06FDFC001F0E0C002F0036A046A9A
:106F7A00000E9DEC26F001C00FF002C010F003C015
:106F8A0011F004C012F00C0E136E320E146EC80EFD
:106F9A00156E3D0E166E4FEC2BF00FC0CBF010C0E5
:106FAA00CCF011C0CDF012C0CEF0C40E00019E6F1D
:106FBA00010E9F6FB90EA06F7F0EA16FCBC0A2F01A
:106FCA00CCC0A3F0CDC0A4F0CEC0A5F0CCEC1EF08E
:106FDA00C282090E0A6EC40E0B6E010E0C6E010EF1
:106FEA00F8EC1DF0000E0A6EA50E0B6E7D0E0C6EEF
:106FFA00020EF8EC1DF0170E0001B76FD50EB66F32
:10700A00160EE82EFED7B62FFCD7B72FFAD700F008
:10701A008394100E0001B76F390EB66F0D0EE82E6D
:10702A00FED7B62FFCD7B72FFAD700D0EEEF32F043
:10703A0000EF04F0000E00017B6F000E7A6F36C07D
:10704A008CF037C08DF038C08EF039C08FF08FBF0A
:10705A0033EF38F031EF38F049EF38F0000E7B6F3C
:10706A00010E7A6F8CC001F08DC002F08EC003F061
:10707A008FC004F0C0EC1DF001C08CF002C08DF08E
:10708A0003C08EF004C08FF0000E0001936F000E53
:10709A00926FD9C07EF0DAC07FF07A517B11D8A402
:1070AA0059EF38F05BEF38F062EF38F0DDA560EFAA
:1070BA0038F062EF38F07CEF38F07A517B11D8A4BF
:1070CA0069EF38F06BEF38F071EF38F0000E616F4E
:1070DA002B0E606F75EF38F0000E616F2D0E606F2A
:1070EA0060C038F1924B932B7E07D8A07F078CC0E3
:1070FA0001F08DC002F08EC003F08FC004F0B8EC2E
:10710A0023F001040210D8A48DEF38F08FEF38F085
:10711A00E6EF38F0BF0E3B6EFF0E3C6E3A503D6E06
:10712A003E6A3B503D263C503E223E500AE11A0E32
:10713A003D5CD8A0A3EF38F0A6EF38F0010EA7EF18
:10714A0038F0000E0001626F636B62516311D8B4AC
:10715A00B1EF38F0B3EF38F0C1EF38F0380E9225BE
:10716A00016E010E9321026EBE0E036E7F0E046E37
:10717A00F5EC1EF0CDEF38F0380E9225016E010EB7
:10718A009321026EC60E036E7F0E046EF5EC1EF09E
:10719A000001FD0E7E27FF0E7F2334C011F035C09B
:1071AA0012F0380E136E010E146E7EC015F07FC0F9
:1071BA0016F0A5EC21F011C034F012C035F04AEFF8
:1071CA003EF08CC001F08DC002F08EC003F08FC07B
:1071DA0004F0B8EC23F001500210D8A4F7EF38F00D
:1071EA00F9EF38F039EF39F0BF0E3B6EFF0E3C6E07
:1071FA003A503D6E3E6A3B503D263C503E223E5040
:10720A000AE11A0E3D5CD8A00DEF39F010EF39F003
:10721A00010E11EF39F0000E0001646F656B6451C5
:10722A006511D8B41BEF39F01DEF39F02BEF39F0A7
:10723A00380E9225016E010E9321026EC20E036E64
:10724A007F0E046EF5EC1EF0CDEF38F0380E922565
:10725A00016E010E9321026ECA0E036E7F0E046E3A
:10726A00F5EC1EF0CDEF38F0000E0001946F000E21
:10727A00956F800E966F3F0E976F000E916F000EFE
:10728A00906F8CC001F08DC002F08EC003F08FC0E9
:10729A0004F0000E056E000E066E000E076E000E5C
:1072AA00086E96EC20F0D8B05DEF39F05FEF39F058
:1072BA00E2EF39F07EEF39F094C00FF095C010F08C
:1072CA0096C011F097C012F0000E136E000E146EE5
:1072DA00200E156E410E166E4FEC2BF00FC094F077
:1072EA0010C095F011C096F012C097F00001904BB3
:1072FA00912B8CC028F08DC029F08EC02AF08FC047
:10730A002BF0000E136E000E146E200E156E410E39
:10731A00166E94C00FF095C010F096C011F097C089
:10732A0012F04FEC2BF00FC02CF010C02DF011C052
:10733A002EF012C02FF037EC24F0D8B0A7EF39F0B6
:10734A00A9EF39F061EF39F0C9EF39F094C001F0D3
:10735A0095C002F096C003F097C004F0000E056EC7
:10736A00000E066E200E076E410E086E82EC29F0A2
:10737A0001C094F002C095F003C096F004C097F0E3
:10738A0000019007D8A091078CC028F08DC029F081
:10739A008EC02AF08FC02BF094C02CF095C02DF02F
:1073AA0096C02EF097C02FF037EC24F0D8A0E0EF6B
:1073BA0039F0E2EF39F0ABEF39F03AC007F0086A7A
:1073CA0081EC1FF007500001816F81C080F0670EC9
:1073DA008119D8A4F3EF39F0F5EF39F01BEF3AF041
:1073EA00DB51DC11D8A4FCEF39F0FEEF39F002EFE3
:1073FA003AF0000EDC6F010EDB6FDCBF0FEF3AF0E4
:10740A00DC5106E1DB05D8B00DEF3AF00FEF3AF0A8
:10741A0015EF3AF0000E7D6F060E7C6F24EF3AF0FE
:10742A00DBC07CF0DCC07DF024EF3AF0DCBF20EF5B
:10743A003AF022EF3AF00FEF3AF015EF3AF0670E12
:10744A008119D8A42BEF3AF02DEF3AF05CEF3AF01D
:10745A0091AF3BEF3AF0FC0E905DFF0E9159D8A028
:10746A0039EF3AF03BEF3AF05AEF3AF0FF0E3B6E43
:10747A00FF0E3C6E7CC03DF07DC03EF03B503D2689
:10748A003C503E2290513D5C3E50800A3F6E9151E5
:10749A00800A3F58D8A054EF3AF056EF3AF05AEF24
:1074AA003AF0660E806F5CEF3AF0650E806F7CC032
:1074BA0072F07DC073F0670E8119D8A467EF3AF0B5
:1074CA0069EF3AF079EF3AF0660E8019D8A470EFB6
:1074DA003AF072EF3AF07BEF3AF091BF79EF3AF077
:1074EA0077EF3AF07BEF3AF0724B732B660E801906
:1074FA00D8A482EF3AF084EF3AF0A4EF3AF091BFC1
:10750A008BEF3AF089EF3AF097EF3AF0000E946F6A
:10751A00000E956F800E966F3F0E976F000E916F5B
:10752A00000E906F670E8119D8B49EEF3AF0A0EF63
:10753A003AF0A4EF3AF09051722791517323000E5A
:10754A008B6F000E8A6F8CC082F08DC083F08EC064
:10755A0084F08FC085F094C074F095C075F096C021
:10756A0076F097C077F035EF3BF082C001F083C028
:10757A0002F084C003F085C004F094C005F095C001
:10758A0006F096C007F097C008F082EC29F001C017
:10759A001AF002C01BF003C01CF004C01DF079EC05
:1075AA0028F01AC086F01BC087F01CC088F01DC0E6
:1075BA0089F086C001F087C002F088C003F089C054
:1075CA0004F0B9EC24F001C078F002C079F082C06E
:1075DA0028F083C029F084C02AF085C02BF094C01B
:1075EA0013F095C014F096C015F097C016F086C037
:1075FA000FF087C010F088C011F089C012F04FEC6C
:10760A002BF00FC02CF010C02DF011C02EF012C0BC
:10761A002FF05BEC1EF028C082F029C083F02AC04C
:10762A0084F02BC085F094C001F095C002F096C09A
:10763A0003F097C004F0000E056E000E066E200ED1
:10764A00076E410E086E82EC29F001C094F002C068
:10765A0095F003C096F004C097F000018A4B8B2B7B
:10766A0072518A5D8B51800A3B6E7351800A3B5876
:10767A00D8A042EF3BF044EF3BF0BAEF3AF094C0A7
:10768A000FF095C010F096C011F097C012F0000EDE
:10769A00136E000E146EA00E156E400E166E4FEC91
:1076AA002BF00FC086F010C087F011C088F012C00E
:1076BA0089F082C028F083C029F084C02AF085C0EE
:1076CA002BF086C02CF087C02DF088C02EF089C020
:1076DA002FF037EC24F0D8B075EF3BF077EF3BF0A2
:1076EA0082EF3BF0000E0001866F000E876F000EDE
:1076FA00886F000E896FABEF3BF082C001F083C048
:10770A0002F084C003F085C004F086C005F087C08B
:10771A0006F088C007F089C008F096EC20F0D8A0DF
:10772A0099EF3BF09BEF3BF0ABEF3BF0000178B1F8
:10773A00A1EF3BF0A3EF3BF0ABEF3BF0000E866FFF
:10774A00000E876F000E886F000E896F8CC001F0E3
:10775A008DC002F08EC003F08FC004F086C005F021
:10776A0087C006F088C007F089C008F064EC2DF0E5
:10777A0001C082F002C083F003C084F004C085F027
:10778A0082C028F083C029F084C02AF085C02BF07B
:10779A00000E136E000E146E200E156E410E166E3C
:1077AA0074C00FF075C010F076C011F077C012F0F7
:1077BA004FEC2BF00FC02CF010C02DF011C02EF0A2
:1077CA0012C02FF037EC24F0D8A0EEEF3BF0F0EF28
:1077DA003BF019EF3CF00001904B912B74C00FF075
:1077EA0075C010F076C011F077C012F0000E136E5B
:1077FA00000E146E200E156E410E166E4FEC2BF015
:10780A000FC074F010C075F011C076F012C077F096
:10781A00660E00018019D8A415EF3CF017EF3CF072
:10782A0019EF3CF0724B732B74C094F075C095F04D
:10783A0076C096F077C097F0650E00018019D8B42B
:10784A0029EF3CF02BEF3CF031EF3CF090C070F0A8
:10785A0091C071F035EF3CF0000E716F000E706F41
:10786A00000E6F6F000E6E6F000E6D6F000E6C6F64
:10787A00000E8B6F000E8A6F30EF3DF082C001F070
:10788A0083C002F084C003F085C004F094C005F000
:10789A0095C006F096C007F097C008F082EC29F070
:1078AA0001C01AF002C01BF003C01CF004C01DF096
:1078BA0079EC28F01AC086F01BC087F01CC088F04B
:1078CA001DC089F086C001F087C002F088C003F0AD
:1078DA0089C004F0B9EC24F001C078F002C079F054
:1078EA000001DDB97BEF3CF07DEF3CF09AEF3CF014
:1078FA0078517911D8A484EF3CF086EF3CF09AEFE6
:10790A003CF0670E8119D8A48DEF3CF08FEF3CF064
:10791A009AEF3CF071BF96EF3CF094EF3CF09AEF8F
:10792A003CF06C4B6D2BE4EF3CF06E516F11D8A418
:10793A00A1EF3CF0A3EF3CF0CDEF3CF071BFAAEF12
:10794A003CF0A8EF3CF0CDEF3CF0380E9225D96E12
:10795A00010E9321DA6E2E0EDF6E924B932B7E0769
:10796A00D8A07F07000E6F6F010E6E6FCDEF3CF04F
:10797A00380E9225D96E010E9321DA6E300EDF6E23
:10798A00924B932B7E07D8A07F076C07D8A06D0770
:10799A006C516D11D8A4D4EF3CF0D6EF3CF0BDEF9A
:1079AA003CF0380E9225D96E010E9321DA6E785189
:1079BA00300FDF6E924B932B7E07D8A07F0782C0D1
:1079CA0028F083C029F084C02AF085C02BF094C027
:1079DA0013F095C014F096C015F097C016F086C043
:1079EA000FF087C010F088C011F089C012F04FEC78
:1079FA002BF00FC02CF010C02DF011C02EF012C0C9
:107A0A002FF05BEC1EF028C082F029C083F02AC058
:107A1A0084F02BC085F094C001F095C002F096C0A6
:107A2A0003F097C004F0000E056E000E066E200EDD
:107A3A00076E410E086E82EC29F001C094F002C074
:107A4A0095F003C096F004C097F000017007D8A023
:107A5A0071078A4B8B2B72518A5D8B51800A3B6E60
:107A6A007351800A3B58D8B03DEF3DF03FEF3DF0EF
:107A7A004DEF3DF093BF4BEF3DF0935109E14B0EB3
:107A8A00925DD8A04BEF3DF04DEF3DF043EF3CF057
:107A9A006E516F11D8A454EF3DF056EF3DF067EFE9
:107AAA003DF0DDA95BEF3DF05DEF3DF067EF3DF0A6
:107ABA00380E9225D96E010E9321DA6E2E0EDF6EE4
:107ACA00924B932B380E9225D96E010E9321DA6EC2
:107ADA00000EDF6E650E8019D8A476EF3DF078EFC0
:107AEA003DF0D2EF38F0000E8B6F4F0E8A6F380ED2
:107AFA008A25D96E010E8B21DA6E000EDF6E000E1A
:107B0A007B6F000E7A6F91BF8FEF3DF08DEF3DF0E6
:107B1A0097EF3DF0000E7B6F010E7A6F906D911F0B
:107B2A00D8B0912B000E7D6F020E7C6FC8EF3DF02E
:107B3A008A07D8A08B07380E8A25D96E010E8B21A9
:107B4A00DA6E90C009F091C00AF0000E0C6E0A0EAF
:107B5A000B6EEBEC20F00950300FDF6E90C001F095
:107B6A0091C002F0000E046E0A0E036E43EC21F07F
:107B7A0001C090F002C091F000017C07D8A07D07F7
:107B8A007E07D8A07F0790519111D8A4CFEF3DF07E
:107B9A00D1EF3DF09DEF3DF07DBFDEEF3DF07D5131
:107BAA0006E17C05D8B0DCEF3DF0DEEF3DF09DEF5D
:107BBA003DF08A07D8A08B077A517B11D8A4E8EF49
:107BCA003DF0EAEF3DF0F0EF3DF0000E676F2B0E4F
:107BDA00666FF4EF3DF0000E676F2D0E666F380E7C
:107BEA008A25D96E010E8B21DA6E66C0DFFF7E0709
:107BFA00D8A07F078A07D8A08B07BF0E3B6EFF0E5F
:107C0A003C6E3A503D6E3E6A3B503D263C503E2209
:107C1A003E500AE11A0E3D5CD8A016EF3EF019EF6D
:107C2A003EF0010E1AEF3EF0000E6A6F6B6B6A515E
:107C3A006B11D8A423EF3EF025EF3EF02BEF3EF078
:107C4A00000E696F650E686F2FEF3EF0000E696FC8
:107C5A00450E686F380E8A25D96E010E8B21DA6EB1
:107C6A0068C0DFFF7E07D8A07F07380E9225016E15
:107C7A00010E9321026E380E8A25036E010E8B21A6
:107C8A00046EF5EC1EF0D2EF38F012000001020388
:107C9A00040506020504090606474554202F757097
:107CAA00646174653F6170695F6B65793D4E365AF0
:107CBA003730584942484B364A4E30445226666954
:107CCA00656C64313D252E3266266669656C6432C0
:107CDA003D252E3266266669656C64333D252E3253
:107CEA00660D0A0041542B43495053544152543DA6
:107CFA00302C22544350222C226170692E746869F8
:107D0A006E67737065616B2E636F6D222C38300D50
:107D1A000A0041542B43495053544152543D342C88
:107D2A0022544350222C226D61696C2E736D74703B
:107D3A0032676F2E636F6D222C323532350D0A0091
:107D4A004E6F20526573706F6E73652E202020204F
:107D5A00202020202020202020004572726F7221CE
:107D6A002121202020202020202020202020202007
:107D7A00200045484C4F203139322E3136382E31C9
:107D8A002E3132330D0A0041542B43495053455288
:107D9A005645523D312C38300D0A00202020202033
:107DAA0020202020202020202020202020200041C8
:107DBA00542B43495053454E443D342C32300D0A1E
:107DCA000041542B43495053454E443D302C3830E2
:107DDA000D0A0041542B43495053454E443D342C1F
:107DEA0031320D0A0041542B43495053454E443D0C
:107DFA00342C330D0A0041542B43495053454E4409
:107E0A003D342C360D0A0045535020697320636FA8
:107E1A006E6E65637465640041542B434950434C4C
:107E2A004F53453D300D0A002020476173204445D9
:107E3A0054454354454420002020536D61727420F8
:107E4A00204F6E696F6E20002053746F72616765F0
:107E5A002053797374656D0041542B4349504D5535
:107E6A00583D310D0A0041542B4349505354415255
:107E7A00543D22004553502073657420617320419C
:107E8A005000415020636F6E6669677572656400C1
:107E9A00455350206E6F7420666F756E64004155AD
:107EAA005448204C4F47494E0D0A00486561746595
:107EBA0072204F6E2C483D00486561746572204FF0
:107ECA006E2C543D00414952205120202020202070
:107EDA000041542B43495053454E443D0041542BD5
:107EEA0043574C49460D0A0041542B4357514150C0
:107EFA000D0A0041542B43494653520D0A00487556
:107F0A006D69646974793A200041542B43574A4198
:107F1A00503D220041542B43575341503D220041CA
:107F2A00542B43574D4F44453D00536D6172744085
:107F3A003132330046616E204F6E2C543D006E6F15
:107F4A00206368616E67650041542B5253540D0AD1
:107F5A0000222C352C330D0A00444154410D0A00ED
:107F6A00515549540D0A0043202020202000546511
:107F7A006D703A20004C696E6B656400556E6C69D1
:107F8A006E6B002520202020002B4950442C0053E2
:107F9A006D617274007265616479000D0A0D0A00E0
:107FAA0041540D0A004D41433A004641494C0025CF
:107FBA002E326600494E46004E414E00696E6600FA
:107FCA006E616E00220D0A002E0D0A00222C22007C
:107FDA0049503A004154450054435000554450001A
:107FEA006C6600432000222C004F4B0025750025AB
:067FFA00003E0043000000
:020000040020DA
:08000000FFFFFFFFFFFFFFFF00
:020000040030CA
:0E000000000C191EFF8080FF0FC00FE00F40A4
:00000001FF
