:060000000A128A11612BB7
:1006A600F200F10170087218F1070310F00D031043
:1006B600F20CF208031D552B71080800C3010A301D
:1006C600BD00BE011E30BF00C0013230C100C201F4
:1006D60083010A128A116F2B363084003D08800090
:1006E600840A3E088000840A3F088000840A400885
:1006F6008000840A41088000840A42088000BC0108
:100706000730831688008601831288160330B300EB
:100716008830B2005630B100B10B8F2BB20B8F2B45
:10072600B30B8F2B8312031388120230B3004430AD
:10073600B200A930B100B10B9E2BB20B9E2BB30BAE
:100746009E2B64008312031388160330B30088308F
:10075600B2005630B100B10BAE2BB20BAE2BB30BC1
:10076600AE2B8312031388120A128A1100260A126C
:100776008A11033083120313B3008830B200563057
:10078600B100B10BC42BB20BC42BB30BC42B8030FE
:10079600F30000300A128A11B6260A128A11433073
:1007A600F30001300A128A11B6260A128A1168303D
:1007B600F30001300A128A11B6260A128A11313064
:1007C600F30001300A128A11B6260A128A11853000
:1007D600F30000300A128A11B6260A128A11433033
:1007E600F30001300A128A11B6260A128A116830FD
:1007F600F30001300A128A11B6260A128A11323023
:10080600F30001300A128A11B6260A128A118A30BA
:10081600F30000300A128A11B6260A128A114330F2
:10082600F30001300A128A11B6260A128A116830BC
:10083600F30001300A128A11B6260A128A113330E1
:10084600F30001300A128A11B6260A128A1183129F
:10085600031308187D2C8230B200DD30B100B10BD5
:10086600322CB20B322C372C831203130818572C58
:10087600B401B5014C2CB40A0319B50A3508803AFF
:10088600FE00F5307E02031D4A2C31303402031877
:10089600502C83120313081C3E2C83120313BC0A2C
:1008A60003303C020318BC010530F0003C080A1274
:1008B6008A1153230A128A11823EF30000300A126B
:1008C6008A11B6260A128A110E30F30000300A1277
:1008D6008A11B6260A128A11063083120313B30050
:1008E6000E30B200B030B100B10B772CB20B772CC2
:1008F600B30B772C83120313B401B501902CB40A01
:100906000319B50A3508803AFE00F5307E02031D4C
:100916008E2C313034020318942C8312031388185A
:10092600822C8312031343100819431483120313F2
:10093600B401B501AC2CB40A0319B50A3508803ADE
:10094600FE00F5307E02031DAA2C31303402031856
:10095600B02C83120313881C9E2C83120313C3101E
:100966000819C314C430F30000300A128A11B626DF
:100976000A128A1183120313431CC31CEA2C88161D
:1009860003103C0D363E8400FF3083138007840F2E
:1009960000080318000AFE00FF3E800084030310CF
:1009A6003C0D363E8400840A801FE02C03103C0D6B
:1009B600363E84008001840A8001CE30F300003088
:1009C6000A128A11B6260A128A112D301F2D4318D3
:1009D600C3182E2D881603103C0D363E84000130B8
:1009E60083138007840A0318800A03103C0D363EE1
:1009F60084000008B100840A0008B200803AFE00B4
:100A060080307E02031D092D63303102031C162D32
:100A16008312031303103C0D363E840063308313A8
:100A26008000840A8001CE30F30000300A128A1159
:100A3600B6260A128A112B30F30001300A128A11E7
:100A4600B6260A128A112030F30001300A128A11E2
:100A5600B6260A128A11831203133608A000370835
:100A6600A1000030A11BFF30A200A3000230A400A9
:100A760010300A128A1168250A128A113808A00055
:100A86003908A1000030A11BFF30A200A3000230EC
:100A9600A40015300A128A1168250A128A113A082A
:100AA600A0003B08A1000030A11BFF30A200A3005C
:100AB6000230A4001A300A128A1168250A128A1115
:100AC60088120C30F3000030252CB000253084004D
:100AD6000A30FE0083138001840AFE0B6D2DAF01E0
:100AE6001030300203187A2D3008803E842D1030E5
:100AF6003002031C892D203030020318892D30085E
:100B0600B03EF3000030B6260A128A11FD272308EC
:100B1600220421042004031D922DAF01AF0AA31F56
:100B2600B22DFF30F300F200F100F0002308F700C9
:100B36002208F6002108F5002008F400EC260A1227
:100B46008A117308A3007208A2007108A100700838
:100B5600A0002D30F3000130B6260A128A11FD27B7
:100B660023082204210420040319E92D2F08253E19
:100B760084000A30F000F101F201F3012308F700C6
:100B86002208F6002108F5002008F4001F270A12A3
:100B96008A11700883138000AF0A0A30F000F10151
:100BA600F201F3012308F7002208F6002108F500F8
:100BB6002008F40088270A128A117308A300720815
:100BC600A2007108A1007008A000B22D2408031924
:100BD600EE2D2408AF00FD27AF032F08FF3A0319B7
:100BE60008002F08253E840083130008303EF300DA
:100BF6000130B6260A128A11EE2D861106118610CC
:100C06001030F700F70B052E64003030FD27860004
:100C160086150730F8007D30F700F70B102EF80B1D
:100C2600102EFD2786110D30F800FB30F700F70B6C
:100C36001A2EF80B1A2E1F2EFD2786101030F700DD
:100C4600F70B232E64003030FD278600861507300B
:100C5600F8007D30F700F70B2E2EF80B2E2EFD2711
:100C660086110D30F800FB30F700F70B382EF80B25
:100C7600382E3D2EFD2786101030F700F70B412E3B
:100C860064003030FD27860086150730F8007D3079
:100C9600F700F70B4C2EF80B4C2EFD2786110D3066
:100CA600F800FB30F700F70B562EF80B562E5B2E8E
:100CB600FD2786101030F700F70B5F2E64002030FA
:100CC600FD27860086150730F8007D30F700F70B04
:100CD6006A2EF80B6A2EFD2786110D30F800FB30C0
:100CE600F700F70B742EF80B742E792E2830F300CC
:100CF6000030B6260A128A112130F8007630F70045
:100D0600F70B832EF80B832E64000C30F3000030B3
:100D1600B6260A128A112130F8007630F700F70B52
:100D2600922EF80B922E6400F301F30A0030B626D9
:100D36000A128A112130F8007630F700F70BA12E3F
:100D4600F80BA12E64000630F3000030B6260A1216
:100D56008A112130F8007630F700F70BB02EF80B29
:100D6600B02E64000800F600761CBC2EFD27861403
:100D7600BE2EFD278610F0307305F40006080F39E5
:100D86007404860086150730F5007D30F400F40BF8
:100D9600CA2EF50BCA2EFD2786117308F400740EB1
:100DA600F039F400F039F50006080F3975048600AD
:100DB60086150730F5007D30F400F40BE02EF50BB8
:100DC600E02EFD278611A630F400F40BE82E640011
:100DD6000800F801F901FA01FB01701C062F7408DE
:100DE600F807750803110318013E031DF907760875
:100DF60003110318013E031DFA07770803110318B0
:100E0600013E031DFB070310F40DF50DF60DF70D5E
:100E16000310F30CF20CF10CF00C7308720471045D
:100E26007004031DF02E7B08F3007A08F20079089F
:100E3600F1007808F0000800F901F71F2F2FF409D8
:100E4600F509F609F709F40A0319F50A0319F60A6A
:100E56000319F70AF901F90AF31F3C2FF009F10902
:100E6600F209F309F00A0319F10A0319F20A031940
:100E7600F30A73087204710470040319712FF801E0
:100E8600F80AF31B4C2F0310F00DF10DF20DF30DC4
:100E9600432F73087702031D5A2F72087602031D2B
:100EA6005A2F71087502031D5A2F70087402031C0D
:100EB6006B2F7008F4027108031C710FF50272089B
:100EC600031C720FF6027308031C730FF70203105C
:100ED600F30CF20CF10CF00CF80B4C2F79080319FB
:100EE6007F2FF409F509F609F709F40A0319F50A3B
:100EF6000319F60A0319F70A7708F3007608F200D1
:100F06007508F1007408F0000800F901F31F982F26
:100F1600F009F109F209F309F00A0319F10A0319B4
:100F2600F20A0319F30AF901F90AF71FA72FF409C0
:100F3600F509F609F709F40A0319F50A0319F60A79
:100F46000319F70A0130F906FA01FB01FC01FD015C
:100F560073087204710470040319E62FF801F80A85
:100F6600F31BBB2F0310F00DF10DF20DF30DB22F95
:100F76000310FA0DFB0DFC0DFD0D73087702031D22
:100F8600CE2F72087602031DCE2F71087502031D3F
:100F9600CE2F70087402031CE02F7008F40271084B
:100FA600031C710FF5027208031C720FF602730818
:100FB600031C730FF7027A140310F30CF20CF10CF6
:100FC600F00CF80BBB2F79080319F42FFA09FB096B
:100FD600FC09FD09FA0A0319FB0A0319FC0A03199D
:100FE600FD0A7D08F3007C08F2007B08F1007A0810
:0A0FF600F000080083120313080046
:00000001FF
